:100000000205250202ABE86480F8E933E8336011A9
:100010000460F0ED33EC337009E8FCE9FDEAFEEB37
:10002000FF220460DED3EB9FEA9EE99DE8C2E78CE5
:10003000F0C2F795F0400CE8CCF8E9CDF9EACEFA39
:10004000EBCFFB12027685D0F05804700320D5B3B5
:10005000E80470075002B2D50202B592D5EC0460F4
:10006000F7E4CCC0E0C398F8603B94186008400DFA
:10007000D0E0FB02028DE4FBFAC9FC8028E830E402
:1000800006E4C9FBE4CAFCE830E305E4C9CACBFCDA
:10009000E854076010F8C3E913F9EA13FAEB13FB0D
:1000A000EC13FCD8F130F52FC3E49CFCEF9BFFEE82
:1000B0009AFEED99FDD0E0FBEF4E4D4C701222DB25
:1000C000030202B2EC2CFCEF33FFEE33FEED33FD06
:1000D000ED30E7EB02028DEF2BFFEE3AFEED39FD3E
:1000E000D0E0FB50130BBB00030202B5ED13FDEE95
:1000F00013FEEF13FFEC13FC02028DEC4D6011E8D0
:10010000497017ED33EC3304600DE4FCFFFEFD2273
:10011000E933E8330470F80202AB12027658046047
:1001200009E4CC248150062850090202B528400376
:100130000202B2C0E0EB4A7044B98006D0E0FB0294
:1001400002A1EF4E701CBD8008EBFFEAFEE9FD80C6
:10015000EBE98DF0A4FEE5F00201E4E9CDF9EAFE59
:10016000EBFFEF89F0A4FCE5F0CE89F0A42EFFE4CC
:1001700035F0CD89F0A42DFEE435F08067EF4E70A8
:1001800005BD80D780C3EF8BF0A4ACF0EE8BF0A45C
:100190002CFCE435F0F8EF8AF0A42CE5F038FCE410
:1001A00033CB8DF0A42CFCE5F03BF8EE8AF0A42CC8
:1001B000FCE5F038F8E433CF89F0A42CFCE5F03806
:1001C000CF3400CE89F0A42FFFE5F03EFEE433C922
:1001D0008DF0A42EFEE5F039CD8AF0A42FFFE5F0D6
:1001E0003EFEE43DFD33D0E0FB50070BBB000F02A9
:1001F00002B5EC2CFCEF33FFEE33FEED33FD0202D3
:100200008D75F020800E75F010800575F0087D006A
:100210007E007F003392D530D503120517EC3340B2
:1002200010EF33FFEE33FEED33FDEC33FCD5F0ED94
:1002300022E5F0247EA2D513CC92E7CDCEFF22EDAD
:10024000D2E7CD33EC3392D524814006E4FFFEFDA6
:10025000FC22FCE4CFCECDCC24E0501174FF80ED25
:10026000C3CC13CCCD13CDCE13CECF13CF0470F0AF
:1002700030D5DE020517E9D2E7C933E833F892D565
:10028000EDD2E7CD33EC33FC5002B2D522EC30E7AF
:10029000100FBF000C0EBE00080DBD00040BEB607C
:1002A00014A2D5EB13FCED92E7FD2274FFFCFDFEDA
:1002B000FF22E480F8A2D574FF13FC7D80E480EF78
:1002C000E709F608DFFA8046E709F208DFFA803E20
:1002D00088828C83E709F0A3DFFA8032E309F6080D
:1002E000DFFA8078E309F208DFFA807088828C8375
:1002F000E309F0A3DFFA806489828A83E0A3F60829
:10030000DFFA805889828A83E0A3F208DFFA804C02
:1003100080D280FA80C680D4806980F280338010D9
:1003200080A680EA809A80A880DA80E280CA803342
:1003300089828A83ECFAE493A3C8C582C8CCC583BA
:10034000CCF0A3C8C582C8CCC583CCDFE9DEE7808A
:100350000D89828A83E493A3F608DFF9ECFAA9F009
:10036000EDFB2289828A83ECFAE0A3C8C582C8CC5F
:10037000C583CCF0A3C8C582C8CCC583CCDFEADE78
:10038000E880DB89828A83E493A3F208DFF980CCDA
:1003900088F0EF60010E4E60C388F0ED2402B404D3
:1003A0000050B9F582EB2402B4040050AF2323457A
:1003B000822390031073BB010689828A83E0225056
:1003C00002E722BBFE02E32289828A83E49322BBF6
:1003D000010CE58229F582E5833AF583E022500697
:1003E000E92582F8E622BBFE06E92582F8E222E54D
:1003F0008229F582E5833AF583E49322BB010689DD
:10040000828A83F0225002F722BBFE01F322F8BB5E
:10041000010DE58229F582E5833AF583E8F0225063
:1004200006E92582C8F622BBFE05E92582C8F2222C
:10043000EF8DF0A4A8F0CF8CF0A428CE8DF0A42EE0
:10044000FE22BC000BBE0029EF8DF084FFADF02230
:10045000E4CCF875F008EF2FFFEE33FEEC33FCEE42
:100460009DEC984005FCEE9DFE0FD5F0E9E4CEFD35
:1004700022EDF8F5F0EE8420D21CFEADF075F00808
:10048000EF2FFFED33FD4007985006D5F0F222C361
:1004900098FD0FD5F0EA22C2D5EC30E709B2D5E4D9
:1004A000C39DFDE49CFCEE30E715B2D5E4C39FFF8D
:1004B000E49EFE120442C3E49DFDE49CFC80031212
:1004C000044230D507C3E49FFFE49EFE22BB010A2D
:1004D00089828A83E0F5F0A3E022500687F009E7DD
:1004E0001922BBFE07E3F5F009E3192289828A830A
:1004F000E493F5F074019322BB010A89828A83F0A8
:10050000E5F0A3F0225006F709A7F01922BBFE067A
:10051000F3E5F009F31922C3E49FFFE49EFEE49D96
:10052000FDE49CFC22787FE4F6D8FD75810A020583
:0605300031B13580FE220E
:00000001FF
